:1000000012C017C016C015C014C013C012C011C052
:1000100010C00FC00EC00DC00CC00BC00AC009C07C
:1000200008C007C006C011241FBECFEDCDBF15D03C
:1000300036C0E6CF9C0121503109181619064CF440
:1000400089EF90E00197F1F700C0000021503109DD
:10005000B8F708958FEF87BB08958FEF87BB20E037
:1000600030E041E050E068B3CA01022E01C0880FC1
:100070000A94EAF7682B68BB88EE93E0E9EFF0E0BA
:100080003197F1F700C000000197C1F718BA2F5F50
:100090003F4F283031053CF320E030E0E4CFF894C6
:0200A000FFCF90
:00000001FF
