:1000000012C02CC02BC02AC029C028C027C026C0BF
:1000100025C024C023C022C021C020C01FC01EC0D4
:100020001DC01CC01BC011241FBECFE5D4E0DEBF25
:10003000CDBF10E0A0E6B0E0EEE8F0E002C0059031
:100040000D92A036B107D9F710E0A0E6B0E001C0EC
:100050001D92A036B107E1F70CD017C0D1CF24EC28
:1000600039E004C0F9013197F1F701970097D1F712
:100070000895BD9A24EC39E0C59884E690E0F90132
:0E0080003197F1F70197D9F7F7CFF894FFCF3A
:00000001FF
